{
  "_format": "hh-sol-artifact-1",
  "contractName": "Raffle",
  "sourceName": "contracts/Raffle.sol",
  "abi": [
    {
      "inputs": [
        {
          "internalType": "address",
          "name": "_vrfCoordinator",
          "type": "address"
        },
        {
          "internalType": "address",
          "name": "_link",
          "type": "address"
        },
        {
          "internalType": "bytes32",
          "name": "_keyHash",
          "type": "bytes32"
        },
        {
          "internalType": "uint256",
          "name": "_fee",
          "type": "uint256"
        }
      ],
      "stateMutability": "nonpayable",
      "type": "constructor"
    },
    {
      "anonymous": false,
      "inputs": [
        {
          "indexed": true,
          "internalType": "address",
          "name": "from",
          "type": "address"
        },
        {
          "indexed": true,
          "internalType": "address",
          "name": "to",
          "type": "address"
        }
      ],
      "name": "OwnershipTransferRequested",
      "type": "event"
    },
    {
      "anonymous": false,
      "inputs": [
        {
          "indexed": true,
          "internalType": "address",
          "name": "from",
          "type": "address"
        },
        {
          "indexed": true,
          "internalType": "address",
          "name": "to",
          "type": "address"
        }
      ],
      "name": "OwnershipTransferred",
      "type": "event"
    },
    {
      "inputs": [],
      "name": "acceptOwnership",
      "outputs": [],
      "stateMutability": "nonpayable",
      "type": "function"
    },
    {
      "inputs": [
        {
          "internalType": "enum Raffle.RaffleCategory",
          "name": "_category",
          "type": "uint8"
        },
        {
          "internalType": "uint256",
          "name": "_noOfTickets",
          "type": "uint256"
        },
        {
          "internalType": "uint256[]",
          "name": "_tickets",
          "type": "uint256[]"
        },
        {
          "internalType": "uint256",
          "name": "_amount",
          "type": "uint256"
        }
      ],
      "name": "buyTicket",
      "outputs": [],
      "stateMutability": "payable",
      "type": "function"
    },
    {
      "inputs": [],
      "name": "checkLinkBalance",
      "outputs": [
        {
          "internalType": "uint256",
          "name": "",
          "type": "uint256"
        }
      ],
      "stateMutability": "view",
      "type": "function"
    },
    {
      "inputs": [
        {
          "internalType": "enum Raffle.RaffleCategory",
          "name": "_category",
          "type": "uint8"
        }
      ],
      "name": "checkRollover",
      "outputs": [],
      "stateMutability": "nonpayable",
      "type": "function"
    },
    {
      "inputs": [
        {
          "internalType": "bytes",
          "name": "",
          "type": "bytes"
        }
      ],
      "name": "checkUpkeep",
      "outputs": [
        {
          "internalType": "bool",
          "name": "upkeepNeeded",
          "type": "bool"
        },
        {
          "internalType": "bytes",
          "name": "performData",
          "type": "bytes"
        }
      ],
      "stateMutability": "view",
      "type": "function"
    },
    {
      "inputs": [
        {
          "internalType": "enum Raffle.RaffleCategory",
          "name": "_category",
          "type": "uint8"
        }
      ],
      "name": "getRaffleState",
      "outputs": [
        {
          "internalType": "enum Raffle.RaffleState",
          "name": "",
          "type": "uint8"
        }
      ],
      "stateMutability": "view",
      "type": "function"
    },
    {
      "inputs": [
        {
          "internalType": "enum Raffle.RaffleCategory",
          "name": "_category",
          "type": "uint8"
        }
      ],
      "name": "getWinningTickets",
      "outputs": [
        {
          "internalType": "bytes32",
          "name": "requestId",
          "type": "bytes32"
        }
      ],
      "stateMutability": "nonpayable",
      "type": "function"
    },
    {
      "inputs": [],
      "name": "owner",
      "outputs": [
        {
          "internalType": "address",
          "name": "",
          "type": "address"
        }
      ],
      "stateMutability": "view",
      "type": "function"
    },
    {
      "inputs": [
        {
          "internalType": "enum Raffle.RaffleCategory",
          "name": "_category",
          "type": "uint8"
        }
      ],
      "name": "payoutWinners",
      "outputs": [],
      "stateMutability": "nonpayable",
      "type": "function"
    },
    {
      "inputs": [
        {
          "internalType": "bytes",
          "name": "performData",
          "type": "bytes"
        }
      ],
      "name": "performUpkeep",
      "outputs": [],
      "stateMutability": "nonpayable",
      "type": "function"
    },
    {
      "inputs": [],
      "name": "raffleStartTime",
      "outputs": [
        {
          "internalType": "uint256",
          "name": "",
          "type": "uint256"
        }
      ],
      "stateMutability": "view",
      "type": "function"
    },
    {
      "inputs": [
        {
          "internalType": "bytes32",
          "name": "requestId",
          "type": "bytes32"
        },
        {
          "internalType": "uint256",
          "name": "randomness",
          "type": "uint256"
        }
      ],
      "name": "rawFulfillRandomness",
      "outputs": [],
      "stateMutability": "nonpayable",
      "type": "function"
    },
    {
      "inputs": [
        {
          "internalType": "address",
          "name": "to",
          "type": "address"
        }
      ],
      "name": "transferOwnership",
      "outputs": [],
      "stateMutability": "nonpayable",
      "type": "function"
    },
    {
      "inputs": [
        {
          "internalType": "enum Raffle.RaffleCategory",
          "name": "_category",
          "type": "uint8"
        },
        {
          "internalType": "uint256",
          "name": "_raffleID",
          "type": "uint256"
        }
      ],
      "name": "viewRaffle",
      "outputs": [
        {
          "internalType": "uint256",
          "name": "ID",
          "type": "uint256"
        },
        {
          "internalType": "address payable[]",
          "name": "winners",
          "type": "address[]"
        },
        {
          "internalType": "uint256",
          "name": "noOfTicketsSold",
          "type": "uint256"
        },
        {
          "internalType": "uint256[]",
          "name": "winningTickets",
          "type": "uint256[]"
        },
        {
          "internalType": "uint256",
          "name": "",
          "type": "uint256"
        }
      ],
      "stateMutability": "view",
      "type": "function"
    }
  ],
  "bytecode": "0x610100604052610e1060c09081525061070860e090815250600360095573e75613bc32e3ec430adbd46d8ddf44c2b7f82071600a60006101000a81548173ffffffffffffffffffffffffffffffffffffffff021916908373ffffffffffffffffffffffffffffffffffffffff1602179055503480156200007e57600080fd5b5060405162004665380380620046658339818101604052810190620000a4919062000594565b3380600086868173ffffffffffffffffffffffffffffffffffffffff1660a08173ffffffffffffffffffffffffffffffffffffffff1660601b815250508073ffffffffffffffffffffffffffffffffffffffff1660808173ffffffffffffffffffffffffffffffffffffffff1660601b815250505050600073ffffffffffffffffffffffffffffffffffffffff168273ffffffffffffffffffffffffffffffffffffffff1614156200018d576040517f08c379a000000000000000000000000000000000000000000000000000000000815260040162000184906200064e565b60405180910390fd5b81600160006101000a81548173ffffffffffffffffffffffffffffffffffffffff021916908373ffffffffffffffffffffffffffffffffffffffff160217905550600073ffffffffffffffffffffffffffffffffffffffff168173ffffffffffffffffffffffffffffffffffffffff1614620002155762000214816200024860201b60201c565b5b505050816005819055508060068190555060036008819055506200023e6200037a60201b60201c565b505050506200078b565b3373ffffffffffffffffffffffffffffffffffffffff168173ffffffffffffffffffffffffffffffffffffffff161415620002ba576040517f08c379a0000000000000000000000000000000000000000000000000000000008152600401620002b19062000670565b60405180910390fd5b80600260006101000a81548173ffffffffffffffffffffffffffffffffffffffff021916908373ffffffffffffffffffffffffffffffffffffffff1602179055508073ffffffffffffffffffffffffffffffffffffffff16600160009054906101000a900473ffffffffffffffffffffffffffffffffffffffff1673ffffffffffffffffffffffffffffffffffffffff167fed8889f560326eb138920d842192f0eb3dd22b4f139c87a2c57538e05bae127860405160405180910390a350565b6000600c6000806002811115620003ba577f4e487b7100000000000000000000000000000000000000000000000000000000600052602160045260246000fd5b6002811115620003f3577f4e487b7100000000000000000000000000000000000000000000000000000000600052602160045260246000fd5b81526020019081526020016000209050670de0b6b3a764000081600001819055506000600c60006001600281111562000455577f4e487b7100000000000000000000000000000000000000000000000000000000600052602160045260246000fd5b60028111156200048e577f4e487b7100000000000000000000000000000000000000000000000000000000600052602160045260246000fd5b81526020019081526020016000209050678ac7230489e8000081600001819055506000600c6000600280811115620004ef577f4e487b7100000000000000000000000000000000000000000000000000000000600052602160045260246000fd5b600281111562000528577f4e487b7100000000000000000000000000000000000000000000000000000000600052602160045260246000fd5b8152602001908152602001600020905068056bc75e2d631000008160000181905550505050565b60008151905062000560816200073d565b92915050565b600081519050620005778162000757565b92915050565b6000815190506200058e8162000771565b92915050565b60008060008060808587031215620005ab57600080fd5b6000620005bb878288016200054f565b9450506020620005ce878288016200054f565b9350506040620005e18782880162000566565b9250506060620005f4878288016200057d565b91505092959194509250565b60006200060f60188362000692565b91506200061c82620006eb565b602082019050919050565b60006200063660178362000692565b9150620006438262000714565b602082019050919050565b60006020820190508181036000830152620006698162000600565b9050919050565b600060208201905081810360008301526200068b8162000627565b9050919050565b600082825260208201905092915050565b6000620006b082620006c1565b9050919050565b6000819050919050565b600073ffffffffffffffffffffffffffffffffffffffff82169050919050565b6000819050919050565b7f43616e6e6f7420736574206f776e657220746f207a65726f0000000000000000600082015250565b7f43616e6e6f74207472616e7366657220746f2073656c66000000000000000000600082015250565b6200074881620006a3565b81146200075457600080fd5b50565b6200076281620006b7565b81146200076e57600080fd5b50565b6200077c81620006e1565b81146200078857600080fd5b50565b60805160601c60a05160601c60c05160e051613e7e620007e76000396000610b4d0152600081816109570152610b6e01526000818161122001526123000152600081816114fe015281816117e801526122c40152613e7e6000f3fe6080604052600436106100dd5760003560e01c806391a07c171161007f578063a24bf4ff11610059578063a24bf4ff1461028a578063a7390c8e146102b5578063bc4db42e146102f6578063f2fde38b14610333576100dd565b806391a07c171461021c57806394985ddd146102385780639a92b15b14610261576100dd565b80636e04ff0d116100bb5780636e04ff0d1461015f578063766f9a1d1461019d57806379ba5097146101da5780638da5cb5b146101f1576100dd565b80630441717b146100e25780633be539ee1461010b5780634585e33b14610136575b600080fd5b3480156100ee57600080fd5b5061010960048036038101906101049190612de7565b61035c565b005b34801561011757600080fd5b506101206105e2565b60405161012d9190613634565b60405180910390f35b34801561014257600080fd5b5061015d60048036038101906101589190612da2565b6105e8565b005b34801561016b57600080fd5b5061018660048036038101906101819190612da2565b61065f565b60405161019492919061339c565b60405180910390f35b3480156101a957600080fd5b506101c460048036038101906101bf9190612de7565b610c01565b6040516101d19190613455565b60405180910390f35b3480156101e657600080fd5b506101ef610ca3565b005b3480156101fd57600080fd5b50610206610e3a565b60405161021391906132d5565b60405180910390f35b61023660048036038101906102319190612e4c565b610e64565b005b34801561024457600080fd5b5061025f600480360381019061025a9190612d66565b61121e565b005b34801561026d57600080fd5b5061028860048036038101906102839190612de7565b6112ba565b005b34801561029657600080fd5b5061029f6114fa565b6040516102ac9190613634565b60405180910390f35b3480156102c157600080fd5b506102dc60048036038101906102d79190612e10565b6115aa565b6040516102ed95949392919061364f565b60405180910390f35b34801561030257600080fd5b5061031d60048036038101906103189190612de7565b6117d9565b60405161032a91906133cc565b60405180910390f35b34801561033f57600080fd5b5061035a60048036038101906103559190612d14565b611946565b005b61036461195a565b6000600b60008360028111156103a3577f4e487b7100000000000000000000000000000000000000000000000000000000600052602160045260246000fd5b60028111156103db577f4e487b7100000000000000000000000000000000000000000000000000000000600052602160045260246000fd5b815260200190815260200160002060006004548152602001908152602001600020905060005b6009548110156105ba57600a60009054906101000a900473ffffffffffffffffffffffffffffffffffffffff1673ffffffffffffffffffffffffffffffffffffffff166323b872dd30846001018481548110610486577f4e487b7100000000000000000000000000000000000000000000000000000000600052603260045260246000fd5b9060005260206000200160009054906101000a900473ffffffffffffffffffffffffffffffffffffffff168560040185815481106104ed577f4e487b7100000000000000000000000000000000000000000000000000000000600052603260045260246000fd5b90600052602060002001546040518463ffffffff1660e01b8152600401610516939291906132f0565b602060405180830381600087803b15801561053057600080fd5b505af1158015610544573d6000803e3d6000fd5b505050506040513d601f19601f820116820180604052508101906105689190612d3d565b6105a7576040517f08c379a000000000000000000000000000000000000000000000000000000000815260040161059e90613534565b60405180910390fd5b80806105b290613a85565b915050610401565b506105c68260006119ec565b600860008154809291906105d990613a85565b91905055505050565b60035481565b60008083838101906105fa9190612ec7565b91509150600182141561061657610610816117d9565b50610659565b600282141561062d576106288161035c565b610658565b60038214156106435761063e611aca565b610657565b60048214156106565761065581611db8565b5b5b5b5b50505050565b6000606060006040518060600160405280600060028111156106aa577f4e487b7100000000000000000000000000000000000000000000000000000000600052602160045260246000fd5b60028111156106e2577f4e487b7100000000000000000000000000000000000000000000000000000000600052602160045260246000fd5b815260200160016002811115610721577f4e487b7100000000000000000000000000000000000000000000000000000000600052602160045260246000fd5b6002811115610759577f4e487b7100000000000000000000000000000000000000000000000000000000600052602160045260246000fd5b8152602001600280811115610797577f4e487b7100000000000000000000000000000000000000000000000000000000600052602160045260246000fd5b60028111156107cf577f4e487b7100000000000000000000000000000000000000000000000000000000600052602160045260246000fd5b81525090506000600360085414156107e657600190505b60005b6003811015610bf757600083826003811061082d577f4e487b7100000000000000000000000000000000000000000000000000000000600052603260045260246000fd5b602002015190506000600b6000836002811115610873577f4e487b7100000000000000000000000000000000000000000000000000000000600052602160045260246000fd5b60028111156108ab577f4e487b7100000000000000000000000000000000000000000000000000000000600052602160045260246000fd5b81526020019081526020016000206000600454815260200190815260200160002090506000600c600084600281111561090d577f4e487b7100000000000000000000000000000000000000000000000000000000600052602160045260246000fd5b6002811115610945577f4e487b7100000000000000000000000000000000000000000000000000000000600052602160045260246000fd5b815260200190815260200160002090507f00000000000000000000000000000000000000000000000000000000000000006003544261098491906138aa565b118015610a125750600160038111156109c6577f4e487b7100000000000000000000000000000000000000000000000000000000600052602160045260246000fd5b8160020160009054906101000a900460ff166003811115610a10577f4e487b7100000000000000000000000000000000000000000000000000000000600052602160045260246000fd5b145b15610a9357600a8260030154108015610a2f575060058260060154105b15610a655760019750600483604051602001610a4c9291906134eb565b6040516020818303038152906040529650505050610be4565b60019750600183604051602001610a7d929190613470565b6040516020818303038152906040529650610be0565b60026003811115610acd577f4e487b7100000000000000000000000000000000000000000000000000000000600052602160045260246000fd5b8160020160009054906101000a900460ff166003811115610b17577f4e487b7100000000000000000000000000000000000000000000000000000000600052602160045260246000fd5b1415610b4b5760019750600283604051602001610b35929190613499565b6040516020818303038152906040529650610bdf565b7f00000000000000000000000000000000000000000000000000000000000000007f0000000000000000000000000000000000000000000000000000000000000000610b9791906137c9565b60035442610ba591906138aa565b118015610baf5750845b15610bde5760019750600383604051602001610bcc9291906134c2565b60405160208183030381529060405296505b5b5b5050505b8080610bef90613a85565b9150506107e9565b5050509250929050565b600080600c6000846002811115610c41577f4e487b7100000000000000000000000000000000000000000000000000000000600052602160045260246000fd5b6002811115610c79577f4e487b7100000000000000000000000000000000000000000000000000000000600052602160045260246000fd5b815260200190815260200160002090508060020160009054906101000a900460ff16915050919050565b600260009054906101000a900473ffffffffffffffffffffffffffffffffffffffff1673ffffffffffffffffffffffffffffffffffffffff163373ffffffffffffffffffffffffffffffffffffffff1614610d33576040517f08c379a0000000000000000000000000000000000000000000000000000000008152600401610d2a90613514565b60405180910390fd5b6000600160009054906101000a900473ffffffffffffffffffffffffffffffffffffffff16905033600160006101000a81548173ffffffffffffffffffffffffffffffffffffffff021916908373ffffffffffffffffffffffffffffffffffffffff1602179055506000600260006101000a81548173ffffffffffffffffffffffffffffffffffffffff021916908373ffffffffffffffffffffffffffffffffffffffff1602179055503373ffffffffffffffffffffffffffffffffffffffff168173ffffffffffffffffffffffffffffffffffffffff167f8be0079c531659141344cd1fd0a4f28419497f9722a3daafe3b4186f6b6457e060405160405180910390a350565b6000600160009054906101000a900473ffffffffffffffffffffffffffffffffffffffff16905090565b600c6000856002811115610ea1577f4e487b7100000000000000000000000000000000000000000000000000000000600052602160045260246000fd5b6002811115610ed9577f4e487b7100000000000000000000000000000000000000000000000000000000600052602160045260246000fd5b8152602001908152602001600020600001548382808383610efa9190613850565b14610f3a576040517f08c379a0000000000000000000000000000000000000000000000000000000008152600401610f3190613574565b60405180910390fd5b85855114610f7d576040517f08c379a0000000000000000000000000000000000000000000000000000000008152600401610f74906135f4565b60405180910390fd5b600a60009054906101000a900473ffffffffffffffffffffffffffffffffffffffff1673ffffffffffffffffffffffffffffffffffffffff166323b872dd3330876040518463ffffffff1660e01b8152600401610fdc93929190613327565b602060405180830381600087803b158015610ff657600080fd5b505af115801561100a573d6000803e3d6000fd5b505050506040513d601f19601f8201168201806040525081019061102e9190612d3d565b61106d576040517f08c379a000000000000000000000000000000000000000000000000000000000815260040161106490613534565b60405180910390fd5b6000600b60008960028111156110ac577f4e487b7100000000000000000000000000000000000000000000000000000000600052602160045260246000fd5b60028111156110e4577f4e487b7100000000000000000000000000000000000000000000000000000000600052602160045260246000fd5b815260200190815260200160002060006004548152602001908152602001600020905060008160080160003373ffffffffffffffffffffffffffffffffffffffff1673ffffffffffffffffffffffffffffffffffffffff16815260200190815260200160002054141561116c5780600601600081548092919061116690613a85565b91905055505b84600c60008a60028111156111aa577f4e487b7100000000000000000000000000000000000000000000000000000000600052602160045260246000fd5b60028111156111e2577f4e487b7100000000000000000000000000000000000000000000000000000000600052602160045260246000fd5b8152602001908152602001600020600101600082825461120291906137c9565b92505081905550611214888888611fdd565b5050505050505050565b7f000000000000000000000000000000000000000000000000000000000000000073ffffffffffffffffffffffffffffffffffffffff163373ffffffffffffffffffffffffffffffffffffffff16146112ac576040517f08c379a00000000000000000000000000000000000000000000000000000000081526004016112a3906135d4565b60405180910390fd5b6112b682826121bf565b5050565b6000600e60008360028111156112f9577f4e487b7100000000000000000000000000000000000000000000000000000000600052602160045260246000fd5b6002811115611331577f4e487b7100000000000000000000000000000000000000000000000000000000600052602160045260246000fd5b815260200190815260200160002060003373ffffffffffffffffffffffffffffffffffffffff1673ffffffffffffffffffffffffffffffffffffffff168152602001908152602001600020549050600061138a82612202565b90506000600c60008560028111156113cb577f4e487b7100000000000000000000000000000000000000000000000000000000600052602160045260246000fd5b6002811115611403577f4e487b7100000000000000000000000000000000000000000000000000000000600052602160045260246000fd5b815260200190815260200160002060000154836114209190613850565b905061142e84848484610e64565b6000600e600086600281111561146d577f4e487b7100000000000000000000000000000000000000000000000000000000600052602160045260246000fd5b60028111156114a5577f4e487b7100000000000000000000000000000000000000000000000000000000600052602160045260246000fd5b815260200190815260200160002060003373ffffffffffffffffffffffffffffffffffffffff1673ffffffffffffffffffffffffffffffffffffffff1681526020019081526020016000208190555050505050565b60007f000000000000000000000000000000000000000000000000000000000000000073ffffffffffffffffffffffffffffffffffffffff166370a08231306040518263ffffffff1660e01b815260040161155591906132d5565b60206040518083038186803b15801561156d57600080fd5b505afa158015611581573d6000803e3d6000fd5b505050506040513d601f19601f820116820180604052508101906115a59190612f03565b905090565b6000606060006060600080600b60008960028111156115f2577f4e487b7100000000000000000000000000000000000000000000000000000000600052602160045260246000fd5b600281111561162a577f4e487b7100000000000000000000000000000000000000000000000000000000600052602160045260246000fd5b8152602001908152602001600020600088815260200190815260200160002090506000600c60008a600281111561168a577f4e487b7100000000000000000000000000000000000000000000000000000000600052602160045260246000fd5b60028111156116c2577f4e487b7100000000000000000000000000000000000000000000000000000000600052602160045260246000fd5b8152602001908152602001600020905081600001548260010183600301548460050184600101548380548060200260200160405190810160405280929190818152602001828054801561176a57602002820191906000526020600020905b8160009054906101000a900473ffffffffffffffffffffffffffffffffffffffff1673ffffffffffffffffffffffffffffffffffffffff1681526020019060010190808311611720575b50505050509350818054806020026020016040519081016040528092919081815260200182805480156117bc57602002820191906000526020600020905b8154815260200190600101908083116117a8575b505050505091509650965096509650965050509295509295909350565b60006117e361195a565b6006547f000000000000000000000000000000000000000000000000000000000000000073ffffffffffffffffffffffffffffffffffffffff166370a08231306040518263ffffffff1660e01b815260040161183f91906132d5565b60206040518083038186803b15801561185757600080fd5b505afa15801561186b573d6000803e3d6000fd5b505050506040513d601f19601f8201168201806040525081019061188f9190612f03565b10156118d0576040517f08c379a00000000000000000000000000000000000000000000000000000000081526004016118c790613594565b60405180910390fd5b6118de6005546006546122c0565b905081600d600083815260200190815260200160002060006101000a81548160ff0219169083600281111561193c577f4e487b7100000000000000000000000000000000000000000000000000000000600052602160045260246000fd5b0217905550919050565b61194e61195a565b6119578161241f565b50565b600160009054906101000a900473ffffffffffffffffffffffffffffffffffffffff1673ffffffffffffffffffffffffffffffffffffffff163373ffffffffffffffffffffffffffffffffffffffff16146119ea576040517f08c379a00000000000000000000000000000000000000000000000000000000081526004016119e190613554565b60405180910390fd5b565b6000600c6000846002811115611a2b577f4e487b7100000000000000000000000000000000000000000000000000000000600052602160045260246000fd5b6002811115611a63577f4e487b7100000000000000000000000000000000000000000000000000000000600052602160045260246000fd5b81526020019081526020016000209050818160020160006101000a81548160ff02191690836003811115611ac0577f4e487b7100000000000000000000000000000000000000000000000000000000600052602160045260246000fd5b0217905550505050565b600360085414611b0f576040517f08c379a0000000000000000000000000000000000000000000000000000000008152600401611b06906135b4565b60405180910390fd5b60046000815480929190611b2290613a85565b9190505550426003819055506000604051806060016040528060006002811115611b75577f4e487b7100000000000000000000000000000000000000000000000000000000600052602160045260246000fd5b6002811115611bad577f4e487b7100000000000000000000000000000000000000000000000000000000600052602160045260246000fd5b815260200160016002811115611bec577f4e487b7100000000000000000000000000000000000000000000000000000000600052602160045260246000fd5b6002811115611c24577f4e487b7100000000000000000000000000000000000000000000000000000000600052602160045260246000fd5b8152602001600280811115611c62577f4e487b7100000000000000000000000000000000000000000000000000000000600052602160045260246000fd5b6002811115611c9a577f4e487b7100000000000000000000000000000000000000000000000000000000600052602160045260246000fd5b815250905060005b6003811015611dac576000600b6000806002811115611cea577f4e487b7100000000000000000000000000000000000000000000000000000000600052602160045260246000fd5b6002811115611d22577f4e487b7100000000000000000000000000000000000000000000000000000000600052602160045260246000fd5b81526020019081526020016000206000600454815260200190815260200160002090506004548160000181905550611d98838360038110611d8c577f4e487b7100000000000000000000000000000000000000000000000000000000600052603260045260246000fd5b602002015160016119ec565b508080611da490613a85565b915050611ca2565b50600060088190555050565b6000600b6000836002811115611df7577f4e487b7100000000000000000000000000000000000000000000000000000000600052602160045260246000fd5b6002811115611e2f577f4e487b7100000000000000000000000000000000000000000000000000000000600052602160045260246000fd5b815260200190815260200160002060006004548152602001908152602001600020905060005b8160030154811015611fb557600082600701600083815260200190815260200160002060009054906101000a900473ffffffffffffffffffffffffffffffffffffffff1690508260080160008273ffffffffffffffffffffffffffffffffffffffff1673ffffffffffffffffffffffffffffffffffffffff16815260200190815260200160002054600e6000866002811115611f1a577f4e487b7100000000000000000000000000000000000000000000000000000000600052602160045260246000fd5b6002811115611f52577f4e487b7100000000000000000000000000000000000000000000000000000000600052602160045260246000fd5b815260200190815260200160002060008373ffffffffffffffffffffffffffffffffffffffff1673ffffffffffffffffffffffffffffffffffffffff16815260200190815260200160002081905550508080611fad90613a85565b915050611e55565b50611fc18260006119ec565b60086000815480929190611fd490613a85565b91905055505050565b6000600b600085600281111561201c577f4e487b7100000000000000000000000000000000000000000000000000000000600052602160045260246000fd5b6002811115612054577f4e487b7100000000000000000000000000000000000000000000000000000000600052602160045260246000fd5b815260200190815260200160002060006004548152602001908152602001600020905060005b8381101561219457816002018382815181106120bf577f4e487b7100000000000000000000000000000000000000000000000000000000600052603260045260246000fd5b602002602001015190806001815401808255809150506001900390600052602060002001600090919091909150553382600701600085848151811061212d577f4e487b7100000000000000000000000000000000000000000000000000000000600052603260045260246000fd5b6020026020010151815260200190815260200160002060006101000a81548173ffffffffffffffffffffffffffffffffffffffff021916908373ffffffffffffffffffffffffffffffffffffffff160217905550808061218c90613a85565b91505061207a565b50828160030160008282546121a991906137c9565b925050819055506121b98461254e565b50505050565b6000600d600084815260200190815260200160002060009054906101000a900460ff16905060006121f08284612700565b90506121fc82826128b7565b50505050565b606060006201869f9050606060005b848110156122b55761270f8342446040516020016122309291906132a9565b6040516020818303038152906040528051906020012060001c6122539190613ae2565b61225d91906137c9565b828281518110612296577f4e487b7100000000000000000000000000000000000000000000000000000000600052603260045260246000fd5b60200260200101818152505080806122ad90613a85565b915050612211565b508092505050919050565b60007f000000000000000000000000000000000000000000000000000000000000000073ffffffffffffffffffffffffffffffffffffffff16634000aea07f0000000000000000000000000000000000000000000000000000000000000000848660006040516020016123349291906133e7565b6040516020818303038152906040526040518463ffffffff1660e01b81526004016123619392919061335e565b602060405180830381600087803b15801561237b57600080fd5b505af115801561238f573d6000803e3d6000fd5b505050506040513d601f19601f820116820180604052508101906123b39190612d3d565b5060006123d58460003060008089815260200190815260200160002054612ac8565b90506001600080868152602001908152602001600020546123f691906137c9565b600080868152602001908152602001600020819055506124168482612b04565b91505092915050565b3373ffffffffffffffffffffffffffffffffffffffff168173ffffffffffffffffffffffffffffffffffffffff16141561248e576040517f08c379a000000000000000000000000000000000000000000000000000000000815260040161248590613614565b60405180910390fd5b80600260006101000a81548173ffffffffffffffffffffffffffffffffffffffff021916908373ffffffffffffffffffffffffffffffffffffffff1602179055508073ffffffffffffffffffffffffffffffffffffffff16600160009054906101000a900473ffffffffffffffffffffffffffffffffffffffff1673ffffffffffffffffffffffffffffffffffffffff167fed8889f560326eb138920d842192f0eb3dd22b4f139c87a2c57538e05bae127860405160405180910390a350565b6000600b600083600281111561258d577f4e487b7100000000000000000000000000000000000000000000000000000000600052602160045260246000fd5b60028111156125c5577f4e487b7100000000000000000000000000000000000000000000000000000000600052602160045260246000fd5b81526020019081526020016000206000600454815260200190815260200160002090506000600c6000846002811115612627577f4e487b7100000000000000000000000000000000000000000000000000000000600052602160045260246000fd5b600281111561265f577f4e487b7100000000000000000000000000000000000000000000000000000000600052602160045260246000fd5b8152602001908152602001600020600101549050600060646019836126849190613850565b61268e919061381f565b905060006064600f846126a19190613850565b6126ab919061381f565b905060006064600a856126be9190613850565b6126c8919061381f565b9050604051806060016040528084815260200183815260200182815250856004019060036126f7929190612b37565b50505050505050565b60606000600b6000856002811115612741577f4e487b7100000000000000000000000000000000000000000000000000000000600052602160045260246000fd5b6002811115612779577f4e487b7100000000000000000000000000000000000000000000000000000000600052602160045260246000fd5b815260200190815260200160002060006004548152602001908152602001600020905060095467ffffffffffffffff8111156127de577f4e487b7100000000000000000000000000000000000000000000000000000000600052604160045260246000fd5b60405190808252806020026020018201604052801561280c5781602001602082028036833780820191505090505b50915060005b6009548110156128af57816003015484826040516020016128349291906136b0565b6040516020818303038152906040528051906020012060001c6128579190613ae2565b838281518110612890577f4e487b7100000000000000000000000000000000000000000000000000000000600052603260045260246000fd5b60200260200101818152505080806128a790613a85565b915050612812565b505092915050565b6000600b60008460028111156128f6577f4e487b7100000000000000000000000000000000000000000000000000000000600052602160045260246000fd5b600281111561292e577f4e487b7100000000000000000000000000000000000000000000000000000000600052602160045260246000fd5b815260200190815260200160002060006004548152602001908152602001600020905060005b600954811015612ab75760008260020184838151811061299d577f4e487b7100000000000000000000000000000000000000000000000000000000600052603260045260246000fd5b6020026020010151815481106129dc577f4e487b7100000000000000000000000000000000000000000000000000000000600052603260045260246000fd5b9060005260206000200154905082600701600082815260200190815260200160002060009054906101000a900473ffffffffffffffffffffffffffffffffffffffff16836001018381548110612a5b577f4e487b7100000000000000000000000000000000000000000000000000000000600052603260045260246000fd5b9060005260206000200160006101000a81548173ffffffffffffffffffffffffffffffffffffffff021916908373ffffffffffffffffffffffffffffffffffffffff160217905550508080612aaf90613a85565b915050612954565b50612ac38360026119ec565b505050565b600084848484604051602001612ae19493929190613410565b6040516020818303038152906040528051906020012060001c9050949350505050565b60008282604051602001612b1992919061327d565b60405160208183030381529060405280519060200120905092915050565b828054828255906000526020600020908101928215612b73579160200282015b82811115612b72578251825591602001919060010190612b57565b5b509050612b809190612b84565b5090565b5b80821115612b9d576000816000905550600101612b85565b5090565b6000612bb4612baf846136fe565b6136d9565b90508083825260208201905082856020860282011115612bd357600080fd5b60005b85811015612c035781612be98882612cea565b845260208401935060208301925050600181019050612bd6565b5050509392505050565b600081359050612c1c81613dc5565b92915050565b600082601f830112612c3357600080fd5b8135612c43848260208601612ba1565b91505092915050565b600081519050612c5b81613ddc565b92915050565b600081359050612c7081613df3565b92915050565b60008083601f840112612c8857600080fd5b8235905067ffffffffffffffff811115612ca157600080fd5b602083019150836001820283011115612cb957600080fd5b9250929050565b600081359050612ccf81613e0a565b92915050565b600081359050612ce481613e1a565b92915050565b600081359050612cf981613e31565b92915050565b600081519050612d0e81613e31565b92915050565b600060208284031215612d2657600080fd5b6000612d3484828501612c0d565b91505092915050565b600060208284031215612d4f57600080fd5b6000612d5d84828501612c4c565b91505092915050565b60008060408385031215612d7957600080fd5b6000612d8785828601612c61565b9250506020612d9885828601612cea565b9150509250929050565b60008060208385031215612db557600080fd5b600083013567ffffffffffffffff811115612dcf57600080fd5b612ddb85828601612c76565b92509250509250929050565b600060208284031215612df957600080fd5b6000612e0784828501612cc0565b91505092915050565b60008060408385031215612e2357600080fd5b6000612e3185828601612cc0565b9250506020612e4285828601612cea565b9150509250929050565b60008060008060808587031215612e6257600080fd5b6000612e7087828801612cc0565b9450506020612e8187828801612cea565b935050604085013567ffffffffffffffff811115612e9e57600080fd5b612eaa87828801612c22565b9250506060612ebb87828801612cea565b91505092959194509250565b60008060408385031215612eda57600080fd5b6000612ee885828601612cd5565b9250506020612ef985828601612cc0565b9150509250929050565b600060208284031215612f1557600080fd5b6000612f2384828501612cff565b91505092915050565b6000612f388383612f6b565b60208301905092915050565b6000612f508383613248565b60208301905092915050565b612f658161397f565b82525050565b612f74816138f0565b82525050565b612f83816138de565b82525050565b6000612f948261374a565b612f9e8185613785565b9350612fa98361372a565b8060005b83811015612fda578151612fc18882612f2c565b9750612fcc8361376b565b925050600181019050612fad565b5085935050505092915050565b6000612ff282613755565b612ffc8185613796565b93506130078361373a565b8060005b8381101561303857815161301f8882612f44565b975061302a83613778565b92505060018101905061300b565b5085935050505092915050565b61304e81613902565b82525050565b61305d8161390e565b82525050565b61307461306f8261390e565b613ace565b82525050565b600061308582613760565b61308f81856137a7565b935061309f818560208601613a21565b6130a881613bcf565b840191505092915050565b6130bc81613991565b82525050565b6130cb816139a3565b82525050565b6130da816139b5565b82525050565b6130e9816139c7565b82525050565b6130f8816139d9565b82525050565b613107816139eb565b82525050565b600061311a6016836137b8565b915061312582613be0565b602082019050919050565b600061313d600f836137b8565b915061314882613c09565b602082019050919050565b60006131606016836137b8565b915061316b82613c32565b602082019050919050565b60006131836012836137b8565b915061318e82613c5b565b602082019050919050565b60006131a6602b836137b8565b91506131b182613c84565b604082019050919050565b60006131c96019836137b8565b91506131d482613cd3565b602082019050919050565b60006131ec601f836137b8565b91506131f782613cfc565b602082019050919050565b600061320f6024836137b8565b915061321a82613d25565b604082019050919050565b60006132326017836137b8565b915061323d82613d74565b602082019050919050565b61325181613968565b82525050565b61326081613968565b82525050565b61327761327282613968565b613ad8565b82525050565b60006132898285613063565b6020820191506132998284613266565b6020820191508190509392505050565b60006132b58285613266565b6020820191506132c58284613266565b6020820191508190509392505050565b60006020820190506132ea6000830184612f7a565b92915050565b60006060820190506133056000830186612f7a565b6133126020830185612f5c565b61331f6040830184613257565b949350505050565b600060608201905061333c6000830186612f7a565b6133496020830185612f7a565b6133566040830184613257565b949350505050565b60006060820190506133736000830186612f7a565b6133806020830185613257565b8181036040830152613392818461307a565b9050949350505050565b60006040820190506133b16000830185613045565b81810360208301526133c3818461307a565b90509392505050565b60006020820190506133e16000830184613054565b92915050565b60006040820190506133fc6000830185613054565b6134096020830184613257565b9392505050565b60006080820190506134256000830187613054565b6134326020830186613257565b61343f6040830185612f7a565b61344c6060830184613257565b95945050505050565b600060208201905061346a60008301846130c2565b92915050565b600060408201905061348560008301856130d1565b61349260208301846130b3565b9392505050565b60006040820190506134ae60008301856130e0565b6134bb60208301846130b3565b9392505050565b60006040820190506134d760008301856130ef565b6134e460208301846130b3565b9392505050565b600060408201905061350060008301856130fe565b61350d60208301846130b3565b9392505050565b6000602082019050818103600083015261352d8161310d565b9050919050565b6000602082019050818103600083015261354d81613130565b9050919050565b6000602082019050818103600083015261356d81613153565b9050919050565b6000602082019050818103600083015261358d81613176565b9050919050565b600060208201905081810360008301526135ad81613199565b9050919050565b600060208201905081810360008301526135cd816131bc565b9050919050565b600060208201905081810360008301526135ed816131df565b9050919050565b6000602082019050818103600083015261360d81613202565b9050919050565b6000602082019050818103600083015261362d81613225565b9050919050565b60006020820190506136496000830184613257565b92915050565b600060a0820190506136646000830188613257565b81810360208301526136768187612f89565b90506136856040830186613257565b81810360608301526136978185612fe7565b90506136a66080830184613257565b9695505050505050565b60006040820190506136c56000830185613257565b6136d26020830184613257565b9392505050565b60006136e36136f4565b90506136ef8282613a54565b919050565b6000604051905090565b600067ffffffffffffffff82111561371957613718613ba0565b5b602082029050602081019050919050565b6000819050602082019050919050565b6000819050602082019050919050565b600081519050919050565b600081519050919050565b600081519050919050565b6000602082019050919050565b6000602082019050919050565b600082825260208201905092915050565b600082825260208201905092915050565b600082825260208201905092915050565b600082825260208201905092915050565b60006137d482613968565b91506137df83613968565b9250827fffffffffffffffffffffffffffffffffffffffffffffffffffffffffffffffff0382111561381457613813613b13565b5b828201905092915050565b600061382a82613968565b915061383583613968565b92508261384557613844613b42565b5b828204905092915050565b600061385b82613968565b915061386683613968565b9250817fffffffffffffffffffffffffffffffffffffffffffffffffffffffffffffffff048311821515161561389f5761389e613b13565b5b828202905092915050565b60006138b582613968565b91506138c083613968565b9250828210156138d3576138d2613b13565b5b828203905092915050565b60006138e982613948565b9050919050565b60006138fb82613948565b9050919050565b60008115159050919050565b6000819050919050565b600081905061392682613d9d565b919050565b600081905061393982613db1565b919050565b6000819050919050565b600073ffffffffffffffffffffffffffffffffffffffff82169050919050565b6000819050919050565b600060ff82169050919050565b600061398a826139fd565b9050919050565b600061399c82613918565b9050919050565b60006139ae8261392b565b9050919050565b60006139c082613972565b9050919050565b60006139d282613972565b9050919050565b60006139e482613972565b9050919050565b60006139f682613972565b9050919050565b6000613a0882613a0f565b9050919050565b6000613a1a82613948565b9050919050565b60005b83811015613a3f578082015181840152602081019050613a24565b83811115613a4e576000848401525b50505050565b613a5d82613bcf565b810181811067ffffffffffffffff82111715613a7c57613a7b613ba0565b5b80604052505050565b6000613a9082613968565b91507fffffffffffffffffffffffffffffffffffffffffffffffffffffffffffffffff821415613ac357613ac2613b13565b5b600182019050919050565b6000819050919050565b6000819050919050565b6000613aed82613968565b9150613af883613968565b925082613b0857613b07613b42565b5b828206905092915050565b7f4e487b7100000000000000000000000000000000000000000000000000000000600052601160045260246000fd5b7f4e487b7100000000000000000000000000000000000000000000000000000000600052601260045260246000fd5b7f4e487b7100000000000000000000000000000000000000000000000000000000600052602160045260246000fd5b7f4e487b7100000000000000000000000000000000000000000000000000000000600052604160045260246000fd5b6000601f19601f8301169050919050565b7f4d7573742062652070726f706f736564206f776e657200000000000000000000600082015250565b7f5472616e73666572206661696c65640000000000000000000000000000000000600082015250565b7f4f6e6c792063616c6c61626c65206279206f776e657200000000000000000000600082015250565b7f496e73756666696369656e742046756e64730000000000000000000000000000600082015250565b7f4e6f7420656e6f756768204c494e4b202d2066696c6c20636f6e74726163742060008201527f7769746820666175636574000000000000000000000000000000000000000000602082015250565b7f5265626f6f7420636865636b206e6f7420636f6d706c65746500000000000000600082015250565b7f4f6e6c7920565246436f6f7264696e61746f722063616e2066756c66696c6c00600082015250565b7f4572726f7220696e20616d6f756e74206f66207469636b6574732067656e657260008201527f6174656400000000000000000000000000000000000000000000000000000000602082015250565b7f43616e6e6f74207472616e7366657220746f2073656c66000000000000000000600082015250565b60038110613dae57613dad613b71565b5b50565b60048110613dc257613dc1613b71565b5b50565b613dce816138de565b8114613dd957600080fd5b50565b613de581613902565b8114613df057600080fd5b50565b613dfc8161390e565b8114613e0757600080fd5b50565b60038110613e1757600080fd5b50565b613e238161393e565b8114613e2e57600080fd5b50565b613e3a81613968565b8114613e4557600080fd5b5056fea2646970667358221220ca8ee7169fa6a03d0e878388d51f0b76e6404edb127cc26e34fc1177e722c21664736f6c63430008040033",
  "linkReferences": {},
  "deployedLinkReferences": {}
}